S00E000064696D6D65722E7372656398
S113000014C0A5C12BC02AC048C028C027C026C020
S113001025C024C023C022C021C020C01FC01CC2D0
S11300203BC21CC01BC01AC019C011241FBECFED97
S1130030CDBF10E0A0E6B0E0E0ECF5E002C0059032
S11300400D92A636B107D9F710E0A6E6B0E001C0DC
S11300501D92A938B107E1F7C7D1B0C2D1CF805101
S1130060843030F4E82FF0E0EF59FF4F8081089599
S11300708EEE08958A3028F4E82FF0E0E859FF4F17
S11300806083089507C0EFE7F7E03197F1F700C008
S1130090000001970097B9F708951F920F920FB6C9
S11300A00F9211242F938F939F9380916000882344
S11300B089F12FB7F89486E490E09BBD8ABD2FBFE9
S11300C08091600090917900981711F4C09A01C052
S11300D0C0988091600090917D00981711F4C19AA6
S11300E001C0C1988091600090918100981711F42B
S11300F0C29A01C0C29880916000909185009817BF
S113010011F4C39A01C0C398809160008150809318
S1130110600007C0C098C198C298C3988EB5887F04
S11301208EBD9F918F912F910F900FBE0F901F90B6
S113013018951FBC1EBC12BC1BBC1ABC8A9883E059
S113014085BF8BB780648BBF7894089584E68093D1
S113015060002FB7F8948CED95E09BBD8ABD2FBF4E
S113016080E489BF8AE08EBD10926700C9C0E09127
S11301706700F0E0EE0FFF1FEE0FFF1FE758FF4F81
S11301808281882309F4A1C0A0916700E0916700EF
S1130190B0E0AA0FBB1FAA0FBB1FA758BF4FF0E0C8
S11301A0EE0FFF1FEE0FFF1FE758FF4F9C91818159
S11301B09817C8F5E0916700F0E0EE0FFF1FEE0F0F
S11301C0FF1FE758FF4F838181508383E0916700CD
S11301D0F0E0EE0FFF1FEE0FFF1FE758FF4F838184
S11301E0882309F5E0916700F0E0EE0FFF1FEE0FA2
S11301F0FF1FE758FF4F80818F5F8083E091670086
S1130200A0916700F0E0EE0FFF1FEE0FFF1FE7580D
S1130210FF4FB0E0AA0FBB1FAA0FBB1FA758BF4FC9
S113022012968C918383A0916700E0916700B0E0FF
S1130230AA0FBB1FAA0FBB1FA758BF4FF0E0EE0FBA
S1130240FF1FEE0FFF1FE758FF4F9C918181891715
S113025008F051C0E0916700F0E0EE0FFF1FEE0FD1
S1130260FF1FE758FF4F838181508383E09167002C
S1130270F0E0EE0FFF1FEE0FFF1FE758FF4F8381E3
S11302808823C9F5E0916700F0E0EE0FFF1FEE0F41
S1130290FF1FE758FF4F808181508083E091670002
S11302A0A0916700F0E0EE0FFF1FEE0FFF1FE7586D
S11302B0FF4FB0E0AA0FBB1FAA0FBB1FA758BF4F29
S11302C012968C911297838316C0E0916700A091D7
S11302D06700F0E0EE0FFF1FEE0FFF1FE758FF4F20
S11302E0B0E0AA0FBB1FAA0FBB1FA758BF4F1196A0
S11302F08C9111978083809167008F5F8093670052
S113030080916700843008F432CF8091600090912E
S11303107900981709F4C09A8091600090917D004B
S1130320981709F4C19A8091600090918100981700
S113033009F4C29A8091600090918500981709F49D
S1130340C39A8091600081508093600008951F9249
S11303500F920FB60F9211242F933F934F935F93F5
S11303606F937F938F939F93AF93BF93EF93FF9379
S1130370EDDEFF91EF91BF91AF919F918F917F91AE
S11303806F915F914F913F912F910F900FBE0F90FE
S11303901F901895B89AB99ABA9ABB9A1092790094
S11303A08AE080937A0084E180937B0080937C00D0
S11303B010927D0085E080937E0080937F0080937F
S11303C080001092810010928200809383008093B9
S11303D08400109285001092860080938700809399
S11303E0880080E090E008958C9AA3DED3DF80E05B
S11303F090E0282F2F5FFC01E859FF4F20830196DE
S11304008A309105B1F786E26FE270E04AE350E08A
S11304100ED07894949888EE93E034DE809169004D
S113042080937A0080916A0080937B00F3CF80935D
S11304307400709376006093750050937800409335
S1130440770087B3806A87BBC79AC59ABD9888EA44
S11304508DB980EF8EB908951F920F920FB60F9247
S113046011248F931092730010927200BD98B79B61
S113047002C0B59BFCCFB59902C088EF04C08FEFD2
S11304808093650088EA8DB980EF8EB98F910F90C3
S11304900FBE0F901F9018951F920F920FB60F92D8
S11304A011242F933F934F935F936F937F938F9375
S11304B09F93AF93BF93EF93FF93809172009091BA
S11304C0730082309105E1F18330910538F400978F
S11304D081F08130910509F060C01FC0843091051E
S11304E0C1F18430910598F08530910509F055C02B
S11304F039C08FB1882331F08FB186959091740003
S1130500891741F4789B3FC081E090E03EC08FB1F1
S1130510882319F088EA8DB923C080916500E091A1
S11305207500F091760009958FB98FEF809365007F
S113053082E090E09093730080937200BD9A10C0A3
S113054083E090E09093730080937200BD981FB88D
S113055022C085E090E09093730080937200BD9870
S113056080E71AC0809165008F3F11F48FB109C0F4
S1130570809165006FB1E0917700F0917800099562
S11305808FEF8093650084E090E0909373008093F4
S113059072001FB8BD9A8EE78EB9FF91EF91BF919B
S11305A0AF919F918F917F916F915F914F913F9107
S11305B02F910F900FBE0F901F901895F894FFCFB6
S10905C0640A0B0C0DFFA0
S9030000FC
