:1000000028C0FDC13FC03EC09FC03CC03BC03AC0FD
:1000100039C038C037C036C035C034C033C05FC205
:100020007EC230C02FC02EC02DC06BC06DC06FC04F
:1000300071C07EC07DC07CC07BC07AC079C078C0F2
:1000400077C076C075C074C073C067C069C06BC02C
:100050006DC011241FBECFEDCDBF10E0A0E6B0E013
:10006000E6E4F6E002C005900D92A236B107D9F79A
:1000700010E0A2E6B0E001C01D92AA37B107E1F797
:100080000AD2DFC2BDCF803221F1813260F48131EA
:10009000B9F0823118F4803141F50FC0823199F006
:1000A000833119F513C08232D1F08232A8F0833245
:1000B000C9F08035D1F48BEA089580916A000895E3
:1000C00080916E000895809172000895809176006D
:1000D000089580916C00089580917000089580913A
:1000E000740008958091780008958AED089590E055
:1000F000C09784319105E0F48B5E9F4F8F939F935F
:10010000089560936B00089560936F000895609365
:100110007300089560937700089560936C000895CC
:100120006093700008956093740008956093780060
:10013000089507C0EFE7F7E03197F1F700C000003E
:1001400001970097B9F708951F920F920FB60F927B
:1001500011242F938F939F9380916000882389F1BE
:100160002FB7F89486E490E09BBD8ABD2FBF8091A5
:10017000600090916A00981711F4C09A01C0C0986D
:100180008091600090916E00981711F4C19A01C09F
:10019000C1988091600090917200981711F4C29AF2
:1001A00001C0C2988091600090917600981711F478
:1001B000C39A01C0C3988091600081508093600011
:1001C00007C0C098C198C298C3988EB5887F8EBD6D
:1001D0009F918F912F910F900FBE0F901F901895A8
:1001E0001FBC1EBC12BC1BBC1ABC8A9883E085BF16
:1001F0008BB780648BBF78940895949A84E680933B
:1002000060002FB7F8948CED95E09BBD8ABD2FBFA1
:1002100080E489BF8AE08EBD10926200C9C0E0917F
:100220006200F0E0EE0FFF1FEE0FFF1FE659FF4FD9
:100230008281882309F4A1C0A0916200E09162004C
:10024000B0E0AA0FBB1FAA0FBB1FA659BF4FF0E01B
:10025000EE0FFF1FEE0FFF1FE659FF4F9C918181AC
:100260009817C8F5E0916200F0E0EE0FFF1FEE0F67
:10027000FF1FE659FF4F838181508383E091620025
:10028000F0E0EE0FFF1FEE0FFF1FE659FF4F8381D7
:10029000882309F5E0916200F0E0EE0FFF1FEE0FFA
:1002A000FF1FE659FF4F80818F5F8083E0916200DE
:1002B000A0916200F0E0EE0FFF1FEE0FFF1FE65966
:1002C000FF4FB0E0AA0FBB1FAA0FBB1FA659BF4F1D
:1002D00012968C918383A0916200E0916200B0E05D
:1002E000AA0FBB1FAA0FBB1FA659BF4FF0E0EE0F0E
:1002F000FF1FEE0FFF1FE659FF4F9C918181891769
:1003000008F051C0E0916200F0E0EE0FFF1FEE0F29
:10031000FF1FE659FF4F838181508383E091620084
:10032000F0E0EE0FFF1FEE0FFF1FE659FF4F838136
:100330008823C9F5E0916200F0E0EE0FFF1FEE0F99
:10034000FF1FE659FF4F808181508083E09162005A
:10035000A0916200F0E0EE0FFF1FEE0FFF1FE659C5
:10036000FF4FB0E0AA0FBB1FAA0FBB1FA659BF4F7C
:1003700012968C911297838316C0E0916200A0912F
:100380006200F0E0EE0FFF1FEE0FFF1FE659FF4F78
:10039000B0E0AA0FBB1FAA0FBB1FA659BF4F1196F3
:1003A0008C9111978083809162008F5F80936200AF
:1003B00080916200843008F432CF80916000909187
:1003C0006A00981709F4C09A8091600090916E00BD
:1003D000981709F4C19A8091600090917200981763
:1003E00009F4C29A8091600090917600981709F400
:1003F000C39A8091600081508093600008951F929D
:100400000F920FB60F9211242F933F934F935F9348
:100410006F937F938F939F93AF93BF93EF93FF93CC
:10042000ECDEFF91EF91BF91AF919F918F917F9102
:100430006F915F914F913F912F910F900FBE0F9051
:100440001F901895B89AB99ABA9ABB9A10926A00F6
:1004500010926B0084E180936C0080936D00109289
:100460006E0010926F0085E08093700080937100A1
:100470001092720010927300809374008093750044
:100480001092760010927700809378008093790024
:1004900080E090E008958C9AA3DED4DF86E263E4E6
:1004A00070E047E750E006D07894949888EE93E0A7
:1004B00040DEFBCF80936500709367006093660019
:1004C000509369004093680087B3806A87BBC79ADE
:1004D000C59ABD9888EA8DB980EF8EB908951F92AC
:1004E0000F920FB60F9211248F9310926400109206
:1004F0006300BD98B79B02C0B59BFCCFB59902C005
:1005000088EF04C08FEF8093610088EA8DB980EF97
:100510008EB98F910F900FBE0F901F9018951F925C
:100520000F920FB60F9211242F933F934F935F9327
:100530006F937F938F939F93AF93BF93EF93FF93AB
:10054000809163009091640082309105E1F18330E5
:10055000910538F4009781F08130910509F060C071
:100560001FC084309105C1F18430910598F0853029
:10057000910509F055C039C08FB1882331F08FB192
:10058000869590916500891741F4789B3FC081E082
:1005900090E03EC08FB1882319F088EA8DB923C05E
:1005A00080916100E0916600F091670009958FB934
:1005B0008FEF8093610082E090E0909364008093DD
:1005C0006300BD9A10C083E090E090936400809334
:1005D0006300BD981FB822C085E090E0909364004E
:1005E00080936300BD9880E71AC0809161008F3FBF
:1005F00011F48FB109C0809161006FB1E091680082
:10060000F091690009958FEF8093610084E090E09C
:1006100090936400809363001FB8BD9A8EE78EB9F3
:10062000FF91EF91BF91AF919F918F917F916F91CA
:100630005F914F913F912F910F900FBE0F901F90A0
:060640001895F894FFCFAD
:0206460064FF4F
:00000001FF
